:020000040800F2
:10000000183C0020D51700084518000845180008BE
:1000100045180008451800084518000800000000B1
:10002000000000000000000000000000451800086B
:100030004518000800000000451800084518000891
:10004000451800084518000845180008451800081C
:10005000451800084518000845180008451800080C
:1000600045180008451800084518000845180008FC
:1000700045180008451800084518000845180008EC
:1000800045180008451800084518000845180008DC
:1000900045180008451800084518000845180008CC
:1000A00045180008451800084518000845180008BC
:1000B000D50B000845180008451800084518000829
:1000C000451800084518000845180008451800089C
:1000D000F50E0008451800084518000845180008E6
:1000E000451800084518000845180008451800087C
:1000F000451800084518000845180008451800086C
:10010000451800084518000845180008790500083A
:10011000451800084518000845180008451800084B
:10012000451800084518000845180008451800083B
:10013000451800084518000845180008451800082B
:10014000451800084518000845180008451800081B
:10015000451800084518000845180008451800080B
:1001600045180008451800084518000845180008FB
:1001700045180008451800084518000845180008EB
:10018000451800084518000880B588B000AFF86031
:10019000B9607A60F868042103F0D4F90346BB61C2
:1001A000BA6913469B0013449B00BA6813447B61F1
:1001B0007B695B68002B08D07B695B687A69926811
:1001C000F86879689847034624E0BB69012B02DC94
:1001D0000123FB6119E0BB69072B02DC0423FB61EF
:1001E00013E0BB69092B02DC0823FB610DE0BB694E
:1001F0000B2B02DC1023FB6107E0BB690D2B02DC3B
:100200002023FB6101E04023FB61F868F96903F0FA
:10021000E9F9002318462037BD4680BD80B586B079
:1002200000AFF860B9607A60F868042103F08AF9D9
:1002300003467B617B69DB000533F868194603F0F0
:10024000D1F9002318461837BD4680BD80B58EB061
:1002500000AF02460B46FA71BB8000237B6300208F
:1002600003F074FEBB8845F22262934237D045F218
:10027000226293420ADC42F6113293421DD0B3F55A
:100280007A5F15D0B3F5FA5F0CD034E04AF64442F9
:1002900093422AD04BF6803293421AD0B3F5FA4FEC
:1002A00011D028E04FF48070052103F039FE22E0E0
:1002B000D520042103F034FE1DE040F2AD100421EE
:1002C00003F02EFE17E04FF4D570042103F028FE52
:1002D00011E04FF48170032103F022FE0BE040F2A5
:1002E000AD10042103F01CFE05E040F20F100621C2
:1002F00003F016FE00BF012003F028FE08200121B4
:1003000003F008FF1023FB62012387F8303001233C
:1003100087F83130002387F83230002387F83330F4
:1003200007F12C034FF44060C4F20200194606F0B6
:1003300051F90720012103F0EDFE4FF41073FB6229
:10034000022387F83030022387F83130012387F801
:100350003230002387F8333007F12C034FF48060EC
:10036000C4F20200194606F035F94FF48060C4F279
:1003700002000621042206F0D3F94FF48060C4F293
:1003800002000921042206F0CBF94FF4A053FB62CE
:10039000022387F83030022387F83130002387F8B2
:1003A0003230002387F8333007F12C034FF400601C
:1003B000C4F20200194606F00DF90020C4F2020052
:1003C0000421062206F0ACF94FF40060C4F20200EA
:1003D0000A21062206F0A4F91023FB6207F12C0380
:1003E0000020C4F20200194606F0F4F84FF4006051
:1003F000C4F202000C21062206F092F98023FB626F
:10040000022387F83030022387F83130002387F841
:100410003230002387F8333007F12C034FF40060AB
:10042000C4F20200194606F0D5F84FF40060C4F299
:1004300002000721062206F073F94FF44060C4F26F
:1004400002001021002206F053F900237B6303E031
:1004500000BF7B6B01337B637A6B48F29F63C0F212
:1004600001039A42F4D94FF44060C4F20200102113
:10047000012206F03DF94FF40010012103F072FE55
:100480004FF4A840C4F200000CF072FD00233B843E
:100490004BF6FF737B843323BB844FF48063FB8470
:1004A0004FF480433B8548F2A063C0F20103FB6137
:1004B0004FF4A840C4F2000001210CF05BFE07F1EC
:1004C0001C034FF4A840C4F2000019460CF08CFD48
:1004D000FB79184600F066F94FF40040012103F063
:1004E00041FE4FF47050C4F200000AF083FE4FF456
:1004F000FA537B611023FB8100233B8200233B8363
:100500004FF40073BB814FF400737B8207F10C033F
:100510004FF47050C4F2000019460AF0A7FE4FF4E1
:1005200080600CF05DFF33233B7201237B7200235C
:10053000BB720123FB7207F1080318460CF064FF3D
:100540004FF47050C4F20000712101220AF0A6FF9E
:100550004FF47053C4F200039B8B9BB203F480638F
:10056000002B06D14FF47050C4F2000001210AF0B4
:1005700067FF3837BD4680BD80B500AF03F08EF908
:1005800080BD00BF80B483B000AF0346FB804FF452
:100590007053C4F20003FA889A810C37BD465DF8A7
:1005A000047B704780B584B000AF02460B46FA71F9
:1005B000BB710023FB6040F20003C2F200034FF462
:1005C00096121A6011E040F20003C2F200031B68A9
:1005D0001A46511E40F20003C2F200031960002ABD
:1005E00003D100F0DBF80346D3E04FF4A840C4F297
:1005F00000004FF400310CF0A9FE0346002BE2D1BD
:100600004FF4A840C4F2000001210CF0D3FD40F2E9
:100610000003C2F200034FF480521A6011E040F26E
:100620000003C2F200031B681A46511E40F2000389
:10063000C2F200031960002A03D100F0AFF80346AC
:10064000A7E04FF4A840C4F200000121C0F203016A
:100650000CF04CFE0346002BE1D04FF4A840C4F24E
:100660000000942100220CF0E5FD40F20003C2F2EC
:1006700000034FF480521A6011E040F20003C2F20E
:1006800000031B681A46511E40F20003C2F2000329
:100690001960002A03D100F081F8034679E04FF495
:1006A000A840C4F200008221C0F207010CF01EFE37
:1006B0000346002BE1D0FB794FF4A840C4F20000C0
:1006C00019460CF0F5FD40F20003C2F200034FF4AE
:1006D00080521A6011E040F20003C2F200031B686E
:1006E0001A46511E40F20003C2F200031960002AAC
:1006F00003D100F053F803464BE04FF4A840C4F296
:1007000000008021C0F207010CF0F0FD0346002B31
:10071000E1D0BB794FF4A840C4F2000019460CF0B8
:10072000C7FD40F20003C2F200034FF496121A60B4
:100730000FE040F20003C2F200031B681A46511E8C
:1007400040F20003C2F200031960002A01D100F058
:1007500025F84FF4A840C4F200000421C1F20001C2
:100760000CF0F4FD0346002BE3D04FF4A840C4F294
:10077000000001210CF03EFDFB79184600F060F806
:100780000246BB799A420CBF00230123DBB2FB6017
:10079000FB6818461037BD4680BD00BF80B400AF6F
:1007A000FEE700BF80B584B000AF0346FB710023B5
:1007B000FB6007E000BF00BF00BF00BF00BFFB68D9
:1007C0000133FB60FA6844F23F23C0F20F039A4200
:1007D000F0D902200121FFF7E5FE0420AF21FFF749
:1007E000E1FE05208121FFF7DDFE06200321FFF752
:1007F000D9FE20200021FFF7D5FE21200021FFF7A0
:10080000D1FE02209E21FFF7CDFE0A200021FFF736
:10081000C9FE0E200421FFF7C5FE27200021FFF7A7
:10082000C1FE1F200F21FFF7BDFE1A200A21FFF78E
:10083000B9FE1B200A21FFF7B5FE1037BD4680BD6B
:1008400080B584B000AF0346FB710023FB6040F22B
:100850000003C2F200034FF496121A6011E040F256
:100860000003C2F200031B681A46511E40F2000347
:10087000C2F200031960002A03D1FFF78FFF03467D
:1008800065E14FF4A840C4F200004FF400310CF0D1
:100890005DFD0346002BE2D14FF4A840C4F20000F6
:1008A00001210CF087FC40F20003C2F200034FF478
:1008B00080521A6011E040F20003C2F200031B688C
:1008C0001A46511E40F20003C2F200031960002ACA
:1008D00003D1FFF763FF034639E14FF4A840C4F2A8
:1008E00000000121C0F203010CF000FD0346002BC3
:1008F000E1D04FF4A840C4F20000942100220CF093
:1009000099FC40F20003C2F200034FF480521A60D7
:1009100011E040F20003C2F200031B681A46511EA8
:1009200040F20003C2F200031960002A03D1FFF76E
:1009300035FF03460BE14FF4A840C4F200008221CA
:10094000C0F207010CF0D2FC0346002BE1D0FB798A
:100950004FF4A840C4F2000019460CF0A9FC40F284
:100960000003C2F200034FF480521A6011E040F21B
:100970000003C2F200031B681A46511E40F2000336
:10098000C2F200031960002A03D1FFF707FF0346F4
:10099000DDE04FF4A840C4F200000421C1F20001E0
:1009A0000CF0D4FC0346002BE1D04FF4A840C4F275
:1009B000000001210CF0FEFB40F20003C2F2000334
:1009C0004FF480521A6011E040F20003C2F20003BB
:1009D0001B681A46511E40F20003C2F20003196060
:1009E000002A03D1FFF7DAFE0346B0E04FF4A84037
:1009F000C4F200000121C0F203010CF077FC0346B1
:100A0000002BE1D04FF4A840C4F200009421012251
:100A10000CF010FC40F20003C2F200034FF48052CD
:100A20001A6011E040F20003C2F200031B681A468C
:100A3000511E40F20003C2F200031960002A03D1E4
:100A4000FFF7ACFE034682E04FF4A840C4F200007A
:100A50000221C1F200010CF079FC0346002BE1D029
:100A60004FF4A840C4F2000000210CF001FC4FF448
:100A7000A843C4F200031B8B4FF4A840C4F200004B
:100A800001210CF0B7FB40F20003C2F200034FF467
:100A900080521A6011E040F20003C2F200031B68AA
:100AA0001A46511E40F20003C2F200031960002AE8
:100AB00003D1FFF773FE034649E04FF4A840C4F2A8
:100AC00000004021C1F200010CF040FC0346002B65
:100AD000E1D04FF4A840C4F200000CF0F9FB03464B
:100AE000FB6040F20003C2F200034FF480521A6030
:100AF00011E040F20003C2F200031B681A46511EC7
:100B000040F20003C2F200031960002A03D1FFF78C
:100B100045FE03461BE04FF4A843C4F200031B88C4
:100B20009BB203F40073002BE3D14FF4A840C4F24E
:100B3000000001210CF09CFB4FF4A840C4F200001F
:100B40004FF48061C1F200010CF034FCFB681846E0
:100B50001037BD4680BD00BF80B483B000AF0346F0
:100B6000FB714FF46143CEF2000397F9072052095D
:100B7000F97901F01F01012000FA01F143F8221078
:100B80000C37BD465DF8047B704700BF80B584B06C
:100B900000AF0120012103F0E5FA3B1D18460CF0DF
:100BA000C5FD0923BB804FF48363BB603B1D4FF041
:100BB000804019460CF044FD4FF080400121012295
:100BC0000CF0EEFD4FF0804001210CF0C9FD103714
:100BD000BD4680BD80B500AF4FF0804001210CF0D4
:100BE00003FE0346002B06D04FF0804001210CF09D
:100BF00025FE02F019FE80BD80B582B000AF1C2337
:100C00003B7100237B710123BB710123FB713B1DF1
:100C100018460CF0F9FB1C20FFF79EFF0837BD4675
:100C200080BD00BF80B500AFFFF7B0FFFFF7E4FF66
:100C300080BD00BF80B582B000AF7860396040F2FF
:100C40005033C2F200031B68DB68184646F2040109
:100C5000C0F601017A683B680EF09CF90837BD4682
:100C600080BD00BF80B582B000AF78607B685B69F3
:100C700078689847034618460837BD4680BD00BFD0
:100C800080B582B000AF78607B681B6A786898474F
:100C9000034618460837BD4680BD00BF80B586B004
:100CA00000AFF860B9607A60FB681B687B617B69A4
:100CB000DB69F868B9687A689847034618461837B8
:100CC000BD4680BD80B586B000AFF860B9607A607F
:100CD000FB681B687B617B699B6AF868B9687A6806
:100CE0009847034618461837BD4680BD80B584B086
:100CF00000AFF860B9607A60FB681B68DB6AF8686F
:100D0000B9687A689847034618461037BD4680BDD3
:100D100080B586B000AFF860B9607A60FB687B612F
:100D2000BB68002B02D0012B05D026E07B691A6836
:100D30007B681A602BE07B681B68002B03D17B6803
:100D400005221A6018E07B681B687A6906339B00ED
:100D500013445B68002B04D17B684FF0FF321A60AC
:100D60000AE07B681B687A6906339B0013445B6862
:100D70005A6B7B681A600AE009E046F21400C0F67C
:100D80000100B968FFF756FF4FF0FF3300E0002382
:100D900018461837BD4680BD80B588B000AF4FF407
:100DA0006053C4F202034FF46052C4F20202126BA9
:100DB00042F480521A6341F26C63C2F200034FF0B6
:100DC00000025A6041F26C63C2F200034FF000026D
:100DD0009A6041F26C63C2F200034FF47A521A80B7
:100DE00041F26C63C2F200030122DA8141F26C63CA
:100DF000C2F2000301229A8141F26C60C2F200004B
:100E00000CF02EFD0620012103F084F902233B772C
:100E10000023BB770023FB7702237B774FF48063AB
:100E2000BB6107F118034FF48060C4F20200194659
:100E300005F0D0FB4FF48060C4F202000A210522C5
:100E400005F06EFC0823BB6107F118034FF4006046
:100E5000C4F20200194605F0BDFB4FF40060C4F275
:100E600002000321052205F05BFC4FF480600CF0CA
:100E7000B7FA24233B7501237B750023BB7501233F
:100E8000FB7507F1140318460CF0BEFA4FF48040CE
:100E9000012103F067F94FF46050C4F200000AF03A
:100EA000A9F94FF47A53FB601023FB8000233B81A8
:100EB00008233B824FF44073BB8000237B813B1DA2
:100EC0004FF46050C4F2000019460AF0CFF94FF415
:100ED0006050C4F20000602101220AF0DFFA4FF4F2
:100EE0006050C4F2000001210AF0AAFA2037BD4682
:100EF00080BD00BF80B582B000AF4FF46050C4F237
:100F0000000060210AF0FAFA0346002B49D04FF4A2
:100F10006050C4F200000AF0B3FA0346FB8040F6CA
:100F2000D403C2F200031B681A46511C40F6D403D6
:100F3000C2F200031960FB881B0A9BB299B2FB88BE
:100F40001B029BB20B439BB299B241F2AC53C2F26B
:100F5000000323F8121040F6D403C2F200031B680A
:100F60003F2B1ED940F6D403C2F2000300221A60C0
:100F70006423BB80BB8841F2AC50C2F2000041F256
:100F80004C61C2F200011A4641F26C63C2F20003E6
:100F90000CF0EAFC41F24C60C2F20000102102F0B9
:100FA00049FC0837BD4680BD80B59EB000AFF860F3
:100FB000B9607A603B6000233B6700237B670CE0ED
:100FC0007B6F5B00BA6813447A6F5200F9680A4479
:100FD00012881A807B6F01337B677B6F092BEFDDF3
:100FE0000023FB665EE0FB6E002B07D1FB6E5B000F
:100FF000BA6813441B88A7F86A3012E0FB6E5B00E6
:10100000BA6813441B889AB2FB6E03F10043013B9C
:101010005B00B9680B441B889BB2D31A9BB2A7F83C
:101020006A30FB6E092B0CD1FB6E5B00BA6813446F
:101030001B889BB2C3F5C94308339BB2A7F868303D
:1010400010E0FB6E01335B00BA6813441B889AB250
:10105000FB6E5B00B9680B441B889BB2D31A9BB232
:10106000A7F86830B7F96820B7F96A309A4203DA0E
:10107000B7F86830A7F86A30B7F86A3003F59673A6
:101080009BB29BB21BB24FF4A03292FBF3F39AB225
:10109000FB6E5B0007F178010B4423F8682CFB6EB4
:1010A0000133FB66FB6E092B9DDD00237B6714E09B
:1010B0007B6F5B00BA6813447A6F5200B9680A44C8
:1010C000128891B27A6F0132D20292B28A1A92B227
:1010D00092B21A807B6F01337B677B6F092BE7DD50
:1010E0006FF00043BB6545F68403C0F601037B65E2
:1010F00000237B662EE00023FB6500233B661BE09C
:101100003B6E5B00BA6813441B889AB27B6D591C16
:1011100079651B785BB25B019BB2D31A9BB27B856E
:10112000B7F92A30B7F92A2002FB03F3FA6D13440A
:10113000FB653B6E01333B663B6E092BE0DDFA6DD0
:10114000BB6D9A4203DAFB6DBB657B6E3B677B6EC2
:1011500001337B667B6E3F2BCDDD00233B6620E0B9
:101160003B6E5B00BA68D1183B6E5B00BA681344F3
:101170001B8898B23A6F13469B0013445B001A46D3
:101180003B6E1A4445F68403C0F601039B5C5BB2D8
:101190005B019BB2C31A9BB29BB20B803B6E0133C7
:1011A0003B663B6E092BDBDD3868396F062202F0A7
:1011B0003DF900237B6710E07B6F5B00BA68134446
:1011C0007A6F5200B9680A44128892B2520092B201
:1011D00092B21A807B6F01337B677B6F092BEBDD4B
:1011E0006FF000437B6445F60433C0F601033B64B3
:1011F00000233B654EE00023BB640023FB643BE01F
:10120000FB6C5B00BA6813441B889AB23B6C591C98
:1012100039641B785BB25B019BB2D31A9BB23B85EE
:10122000FB6C5B0007F17802134433F8683C1BB297
:10123000B7F92820B7F9281001FB02F2D21392B2B5
:1012400012B202FB03F2FB6C5B0007F178010B4466
:1012500033F8683C1BB2398D388D00FB01F189B23F
:10126000C1F30E0101FB03F3DB131344BA6C134407
:10127000BB64FB6C0133FB64FB6C042BC0DDBA6CFC
:101280007B6C9A4203DABB6C7B643B6D3B673B6DC6
:1012900001333B653B6D3F2BADDD0023FB641EE05E
:1012A000FB6C5B00BA68D118FB6C5B00BA68134436
:1012B0001B8898B23A6F13469B001A44FB6C1A4481
:1012C00045F60433C0F601039B5C5BB25B019BB245
:1012D000C31A9BB29BB20B80FB6C0133FB64FB6CAB
:1012E000042BDDDD3868396F062202F09FF86FF0BD
:1012F00000433B6345F68453C0F60103FB620023C1
:10130000FB6351E000237B630023BB633EE0BB6BC8
:1013100005335B00BA6813441B889AB2FB6A591CF8
:10132000F9621B785BB25B019BB2D31A9BB2FB8460
:10133000BB6B05335B0007F17802134433F8683C5C
:101340001BB2B7F92620B7F9261001FB02F2D2131F
:1013500092B212B202FB03F2BB6B05335B0007F1E2
:1013600078010B4433F8683C1BB2F98CF88C00FB15
:1013700001F189B2C1F30E0101FB03F3DB13134446
:101380007A6B13447B63BB6B0133BB63BB6B042B76
:10139000BDDD7A6B3B6B9A4203DA7B6B3B63FB6B85
:1013A0003B67FB6B0133FB63FB6B3F2BAADD002329
:1013B000BB6320E0BB6B05335B00BA68D118BB6B25
:1013C00005335B00BA6813441B8898B23A6F134622
:1013D0009B001A44BB6B1A4445F68453C0F60103C4
:1013E0009B5C5BB25B019BB2C31A9BB29BB20B804E
:1013F000BB6B0133BB63BB6B042BDBDD3868396F20
:10140000062202F013F800237B6719E07B6F5B0074
:10141000BA6813447A6F5200F9680A44128891B28C
:101420007A6F5200B8680244128812B20132521028
:1014300092B28A1A92B292B21A807B6F01337B67A2
:101440007B6F092BE2DD7837BD4680BD80B586B065
:1014500000AFF860B9607A6000237B610BE07B69C4
:101460005B00FA6813447A690132D20292B21A80A0
:101470007B6901337B617A69BB689A42EFDB7868EC
:10148000062102F05FF803463B6100237B6121E007
:101490007B695B00FA68D1187B695B00FA681344CA
:1014A0001B8898B23A6913469B0013445B001A46A6
:1014B0007B691A4445F68403C0F601039B5C5BB26A
:1014C0009BB25B019BB203449BB29BB20B807B69D6
:1014D00001337B617B69092BDADD7868062102F034
:1014E00031F803463B6100237B611FE07B695B00B1
:1014F000FA68D1187B695B00FA6813441B8898B2BC
:101500003A6913469B001A447B691A4445F6043332
:10151000C0F601039B5C5BB29BB21B019BB2034410
:101520009BB29BB20B807B6901337B617B69042B8F
:10153000DCDD7868062102F005F803463B610023F4
:101540007B6121E07B6905335B00FA68D1187B6918
:1015500005335B00FA6813441B8898B23A69134656
:101560009B001A447B691A4445F68453C0F6010374
:101570009B5C5BB29BB21B019BB203449BB29BB2D0
:101580000B807B6901337B617B69042BDADD1837C3
:10159000BD4680BD2DE9F0414FF000064FF000033D
:1015A00030F9024B31F9027B04FB073330F9025B5F
:1015B00031F9028B05FB083330F9024B31F9027B1C
:1015C00004FB073330F9025B31F9028B05FB08336A
:1015D00006EBA3164FF0000330F9024B31F9027B02
:1015E00004FB073330F9025B31F9028B05FB08334A
:1015F00030F9024B31F9027B04FB073330F9025B0F
:1016000031F9028B05FB083306EBA3164FF00003FC
:1016100030F9024B31F9027B04FB073330F9025BEE
:1016200031F9028B05FB083330F9024B31F9027BAB
:1016300004FB073330F9025B31F9028B05FB0833F9
:1016400006EBA3164FF0000330F9024B31F9027B91
:1016500004FB073330F9025B31F9028B05FB0833D9
:1016600030F9024B31F9027B04FB073330F9025B9E
:1016700031F9028B05FB083306EBA3164FF000038C
:1016800030F9024B31F9027B04FB073330F9025B7E
:1016900031F9028B05FB083330F9024B31F9027B3B
:1016A00004FB073330F9025B31F9028B05FB083389
:1016B00006EBA3164FF0000330F9024B31F9027B21
:1016C00004FB073330F9025B31F9028B05FB083369
:1016D00030F9024B31F9027B04FB073330F9025B2E
:1016E00031F9028B05FB083306EBA3164FF000031C
:1016F00030F9024B31F9027B04FB073330F9025B0E
:1017000031F9028B05FB083330F9024B31F9027BCA
:1017100004FB073330F9025B31F9028B05FB083318
:1017200006EBA3164FF0000330F9024B31F9027BB0
:1017300004FB073330F9025B31F9028B05FB0833F8
:1017400030F9024B31F9027B04FB073330F9025BBD
:1017500031F9028B05FB083306EBA3164FF00003AB
:1017600030F9024B31F9027B04FB073330F9025B9D
:1017700031F9028B05FB083330F9024B31F9027B5A
:1017800004FB073330F9025B31F9028B05FB0833A8
:1017900006EBA3164FF0000330F9024B31F9027B40
:1017A00004FB073330F9025B31F9028B05FB083388
:1017B00030F9024B31F9027B04FB073330F9025B4D
:1017C00031F9028B05FB083306EBA3163046BDE862
:1017D000F081000080B582B000AF46F69033C0F6CD
:1017E00001037B6040F20003C2F200033B6007E0AC
:1017F0003B681A1D3A607A68111D796012681A6098
:101800003A6840F6D403C2F200039A42F0D30A4881
:101810000A494FF000028842B8BF40F8042BFADBB7
:10182000DFF81C00016841F47001016002F0C8FAA1
:101830000837BD4680BD0000D4080020141C0020DD
:1018400088ED00E080B400AFFEE700BF80B485B053
:1018500000AF78600023FB607B68B3F5803F05D361
:101860007B681B0C7B60FB680833FB607B68FF2B8D
:1018700005D97B681B0A7B60FB680433FB607B68CF
:101880000F2B05D97B681B097B60FB680233FB606B
:101890007B68032B02D9FB680133FB60FB689BB2BA
:1018A0001BB218461437BD465DF8047B704700BF75
:1018B00080B584B000AF78607B681846FFF7C6FF3C
:1018C0000346063BFB60FB685B00002B05DDFB6805
:1018D0005B007A6842FA03F305E0FB685B005B4259
:1018E0007A6802FA03F37B607B689BB21AB27B686A
:1018F0009BB219B27B689BB21BB241F26C0000FB39
:1019000003F39B139BB2A3F54553133B9BB29BB2CE
:101910001BB203FB01F39B139BB203F5A5433533C5
:101920009BB29BB21BB203FB02F39B139BB203F669
:1019300032639BB29BB21BB2BB60FB68C3F107036F
:10194000002B06DDFB68C3F10703BA6842FA03F314
:1019500004E0FB68073BBA6802FA03F3BB60BB68AC
:101960009BB21BB218461037BD4680BD80B49DB0F7
:1019700000AFF860B9607A603B604FF40053A7F89D
:101980006A30B7F86A305B429BB2A7F86830B7F9A3
:101990006A309B0303F580535B139AB23B681A804D
:1019A0003B681B889BB25B429BB2A7F866307B68A2
:1019B0001B881BB2B7F9682002FB03F3FB63FB68CB
:1019C0001B881BB2B7F9662002FB03F37B617B68BF
:1019D00002331B881BB2B7F9682002FB03F33B6498
:1019E000FB6802331B881BB2B7F9662002FB03F3C6
:1019F000BB617B6804331B881BB2B7F9682002FB0C
:101A000003F37B64FB6804331B881BB2B7F96620C1
:101A100002FB03F3FB617B6806331B881BB2B7F93B
:101A2000682002FB03F3BB64FB6806331B881BB210
:101A3000B7F9662002FB03F33B627B6808331B881F
:101A40001BB2B7F9682002FB03F3FB64FB680833A1
:101A50001B881BB2B7F9662002FB03F37B627B682D
:101A60000A331B881BB2B7F9682002FB03F33B65FE
:101A7000FB680A331B881BB2B7F9662002FB03F32D
:101A8000BB627B680C331B881BB2B7F9682002FB72
:101A900003F37B65FB680C331B881BB2B7F9662028
:101AA00002FB03F3FB627B680E331B881BB2B7F9A2
:101AB000682002FB03F3BB65FB680E331B881BB277
:101AC000B7F9662002FB03F33B637B6810331B8886
:101AD0001BB2B7F9682002FB03F3FB65FB68103308
:101AE0001B881BB2B7F9662002FB03F37B637B689C
:101AF00012331B881BB2B7F9682002FB03F33B6665
:101B0000FB6812331B881BB2B7F9662002FB03F394
:101B1000BB630123FB6608E1FB6E03F10043013B5D
:101B20005B00BA6813441B889AB2FB6B03F58053C1
:101B30005B139BB213449BB2A7F86A30B7F86A30C4
:101B40005B429BB2A7F86830FB6E5B003A681344B7
:101B5000B7F96A2091037A690A4402F58052521358
:101B600092B21A80FB6E5B003A6813441B889BB2EA
:101B70005B429BB2A7F866303A6C7B681B881BB24D
:101B8000B7F9681001FB03F31344FB63BA69FB6800
:101B90001B881BB2B7F9661001FB03F313447B618A
:101BA0007A6C7B6802331B881BB2B7F9681001FBA3
:101BB00003F313443B64FA69FB6802331B881BB2CE
:101BC000B7F9661001FB03F31344BB61BA6C7B6881
:101BD00004331B881BB2B7F9681001FB03F31344ED
:101BE0007B643A6AFB6804331B881BB2B7F9661042
:101BF00001FB03F31344FB61FA6C7B6806331B881B
:101C00001BB2B7F9681001FB03F31344BB647A6A93
:101C1000FB6806331B881BB2B7F9661001FB03F3A0
:101C200013443B623A6D7B6808331B881BB2B7F9DB
:101C3000681001FB03F31344FB64BA6AFB680833C2
:101C40001B881BB2B7F9661001FB03F313447B62D8
:101C50007A6D7B680A331B881BB2B7F9681001FBE9
:101C600003F313443B65FA6AFB680A331B881BB213
:101C7000B7F9661001FB03F31344BB62BA6D7B68CE
:101C80000C331B881BB2B7F9681001FB03F3134434
:101C90007B653A6BFB680C331B881BB2B7F9661087
:101CA00001FB03F31344FB62FA6D7B680E331B8860
:101CB0001BB2B7F9681001FB03F31344BB657A6BE1
:101CC000FB680E331B881BB2B7F9661001FB03F3E8
:101CD00013443B633A6E7B6810331B881BB2B7F921
:101CE000681001FB03F31344FB65BA6BFB68103308
:101CF0001B881BB2B7F9661001FB03F313447B6327
:101D00007B6812331B881BB2B7F9682002FB03F310
:101D10003B66FB6812331B881BB2B7F9662002FBD7
:101D200003F3BB63FB6E0133FB66FB6E0A2B7FF78D
:101D3000F3AE0B23FB66FCE0FB6B03F580535B13F8
:101D4000A7F86A30B7F86A305B429BB2A7F86830F0
:101D5000FB6E5B003A681344B7F96A2091037A6915
:101D60000A4402F58052521392B21A80FB6E5B0055
:101D70003A6813441B889BB25B429BB2A7F866305B
:101D80003A6C7B681B881BB2B7F9681001FB03F340
:101D90001344FB63BA69FB681B881BB2B7F9661072
:101DA00001FB03F313447B617A6C7B6802331B886D
:101DB0001BB2B7F9681001FB03F313443B64FA69E3
:101DC000FB6802331B881BB2B7F9661001FB03F3F3
:101DD0001344BB61BA6C7B6804331B881BB2B7F930
:101DE000681001FB03F313447B643A6AFB68043315
:101DF0001B881BB2B7F9661001FB03F31344FB61A8
:101E0000FA6C7B6806331B881BB2B7F9681001FBBC
:101E100003F31344BB647A6AFB6806331B881BB266
:101E2000B7F9661001FB03F313443B623A6D7B681C
:101E300008331B881BB2B7F9681001FB03F3134486
:101E4000FB64BA6AFB6808331B881BB2B7F96610DB
:101E500001FB03F313447B627A6D7B680A331B88B2
:101E60001BB2B7F9681001FB03F313443B65FA6A30
:101E7000FB680A331B881BB2B7F9661001FB03F33A
:101E80001344BB62BA6D7B680C331B881BB2B7F975
:101E9000681001FB03F313447B653A6BFB680C335A
:101EA0001B881BB2B7F9661001FB03F31344FB62F6
:101EB000FA6D7B680E331B881BB2B7F9681001FB03
:101EC00003F31344BB657A6BFB680E331B881BB2AC
:101ED000B7F9661001FB03F313443B633A6E7B686A
:101EE00010331B881BB2B7F9681001FB03F31344CE
:101EF000FB65BA6BFB6810331B881BB2B7F9661021
:101F000001FB03F313447B637B6812331B881BB212
:101F1000B7F9682002FB03F33B66FB6812331B88AA
:101F20001BB2B7F9662002FB03F3BB63FB6E013300
:101F3000FB66FB6E272B7FF7FFAE7437BD465DF85F
:101F4000047B704780B487B000AFB9607A603B60B3
:101F50000346FB81FB897B8200237B611FE07B6959
:101F60005B007A681344B7F9122079694900B868B0
:101F70000144098809B201FB02F202F58042D21342
:101F800092B21A80B7F91230B7F90E2002FB03F3B0
:101F900003F58043DB137B827B6901337B617A69C4
:101FA0003B689A42DBDB1C37BD465DF8047B70471B
:101FB00080B487B000AFF860B9607A603B600023FE
:101FC0007B6136E07B699B00FA6813441A68BB6842
:101FD0009A4207DB7B699B00FA6813441A687B68A6
:101FE0009A4223DD7B699B00FA6813441A68BB6838
:101FF0009A4206DA7B699B00FA681344BA681A6051
:1020000014E07B699B00FA6813441A687B689A4263
:1020100006DD7B699B00FA6813447A681A6005E064
:102020007B699B00FA68134400221A607B690133C4
:102030007B617A693B689A42C4DB1C37BD465DF818
:10204000047B7047B0B499B000AFF860B9607A60B3
:102050003B6046F26803C0F6010307F130041D46F9
:1020600028686968AA68EB680FC428696969AA6961
:1020700007C4AB8B238046F28803C0F6010307F147
:1020800010041D4628686968AA68EB680FC42869AF
:102090006969AA6907C4AB8B23803B68042B01DD07
:1020A00004233B6007F130013A6813465B00134498
:1020B0005B000B44BB6507F110013A6813465B00F7
:1020C00013445B000B447B650023FB6595E07B6D4F
:1020D0001B881BB2FA6D5200F9680A44128812B2CA
:1020E00002FB03F23B6F1B6813443B653B6D03F53A
:1020F00000539B13B3F5004F10DA3B6D03F500530B
:102100009B1313F5004F05DD3B6D03F500539B1347
:102110009BB201E048F201039BB201E047F6FF7376
:10212000A7F84E303B6F04331A687B6D02331B886F
:102130001BB2F96D4900F8680144098809B201FB36
:1021400003F31A44BB6D02331B889BB25B429BB204
:102150009BB21BB2396DC91389B209B201FB03F1FD
:10216000BB6D02331B889BB25B429BB29BB21BB21E
:10217000386D80B2C0F30E0000FB03F3DB130B4499
:102180005B001A443B6F1A603B6F04337A6D043274
:10219000128812B2F96D4900F8680144098809B241
:1021A00001FB02F1BA6D0432128892B2524292B22D
:1021B00092B212B2386DC01380B200B200FB02F0CE
:1021C000BA6D0432128892B2524292B292B212B2F4
:1021D0003C6DA4B2C4F30E0404FB02F2D213024419
:1021E00052000A441A60FB6D5B00BA681344B7F8EA
:1021F0004E201A80FB6D0133FB65FA6D7B689A42B5
:10220000FFF665AF6437BD46B0BC704780B487B099
:1022100000AFF860B9607A603B6000237B6126E024
:102220007B699B00BA6813447A699200F9680A4492
:102230001268D21192B212B27968891389B209B2C6
:1022400001FB02F17A699200F86802441268D21127
:1022500092B212B2786880B2C0F30D0000FB02F2B5
:1022600092130A44D2011A607B6901337B617A6957
:102270003B689A42D4DB1C37BD465DF8047B70474F
:1022800080B489B000AFF860B9607A603B607B6869
:10229000B3F5800F30DD7B6803F500539B137B6043
:1022A0007B689BB21BB25B109BB21BB203F50012A2
:1022B0007B689BB21BB292FBF3F37B830023FB6131
:1022C00015E0FB695B00BA681344B7F91A20F96995
:1022D0004900F8680144098809B201FB02F202F5DD
:1022E0008042D21392B21A80FB690133FB61FA6912
:1022F0003B689A42E5DB60E07B68B3F5805F2CDDEC
:102300007B6803F580735B127B607B689BB21BB2BA
:102310004FF4003292FBF3F33B830023FB6117E0A1
:10232000FB695B00BA681344B7F91820F9694900E2
:10233000F8680144098809B2890089B209B201FB31
:1023400002F28032121292B21A80FB690133FB61F1
:10235000FA693B689A42E3DB2FE07B684033DB118C
:102360007B607B68042B01DC05237B607B689BB270
:102370001BB24FF4003292FBF3F3FB820023FB61AC
:1023800017E0FB695B00BA681344B7F91620F969D6
:102390004900F8680144098809B2890089B209B284
:1023A00001FB02F22032921192B21A80FB690133D2
:1023B000FB61FA693B689A42E3DB2437BD465DF86E
:1023C000047B704780B58AB000AF78603960002325
:1023D0003B620123FB6100237B6214E07B6A9B006C
:1023E0007A6813441B687B617B69002B02DA7B6986
:1023F0005B427B617A69FB699A4201DD7B69FB6123
:102400007B6A01337B627A6A3B689A42E6DB00238F
:10241000BB6105E0BB690133BB61FB695B10FB611C
:10242000FB69B3F5804FF5DA00237B6254E00023AB
:102430003B617B6A9B007A6813441A68BB6942FA65
:1024400003F3FB81B7F90E30B7F90E2002FB03F35B
:102450003A6913443B617B6A01339B007A681344F9
:102460001A68BB6942FA03F3FB81B7F90E30B7F97A
:102470000E2002FB03F33A6913443B617B6A02338B
:102480009B007A6813441A68BB6942FA03F3FB8124
:10249000B7F90E30B7F90E2002FB03F33A69134483
:1024A0003B617B6A03339B007A6813441A68BB69FB
:1024B00042FA03F3FB81B7F90E30B7F90E2002FBA5
:1024C00003F33A6913443B613B699B113A6A134435
:1024D0003B627B6A04337B627A6A3B689A42A6DB82
:1024E0003A6A3B6892FBF3F31846FFF7E1F90346BB
:1024F0001A46BB69033302FA03F303F500539B1337
:102500009BB21BB218462837BD4680BD80B58AB045
:1025100000AF786039600A237B8400237B6216E079
:102520007B6A5B007A6813441B881BB2FB61FB6902
:10253000002B02DAFB695B42FB61B7F92220FB69E1
:102540009A4201DAFB697B847B6A01337B627A6A97
:102550003B689A42E4DBB7F92230B3F5804F7FDB6A
:102560000023BB6100237B626BE00023FB607B6A7E
:102570005B007A6813441B881BB25B109BB21BB2D2
:102580007A6A520079680A44128812B2521092B2E2
:1025900012B202FB03F3FA681344FB607B6A013357
:1025A0005B007A6813441B881BB25B109BB21BB2A2
:1025B0007A6A0132520079680A44128812B25210C3
:1025C00092B212B202FB03F3FA681344FB607B6A17
:1025D00002335B007A6813441B881BB25B109BB20A
:1025E0001BB27A6A0232520079680A44128812B227
:1025F000521092B212B202FB03F3FA681344FB606A
:102600007B6A03335B007A6813441B881BB25B1040
:102610009BB21BB27A6A0332520079680A4412886C
:1026200012B2521092B212B202FB03F3FA681344D0
:10263000FB60FB689B11BA691344BB617B6A04337E
:102640007B627A6A3B689A428FDBBA693B6892FB8D
:10265000F3F31846FFF72CF903461B019BB2ABE0DE
:1026600000237B6100233B61B7F92230B3F5005FA3
:1026700001DA01233B61B7F92230B3F5805F01DA5B
:1026800002233B61B7F92230B3F5006F01DA03236F
:102690003B6100237B627BE00023BB607B6A5B00C5
:1026A0007A6813441B881AB23B6902FA03F39BB29F
:1026B0001BB27A6A520079680A44128811B23A69E8
:1026C00001FA02F292B212B202FB03F3BA681344A7
:1026D000BB607B6A01335B007A6813441B881AB2C3
:1026E0003B6902FA03F39BB21BB27A6A01325200D1
:1026F00079680A44128811B23A6901FA02F292B278
:1027000012B202FB03F3BA681344BB607B6A023364
:102710005B007A6813441B881AB23B6902FA03F320
:102720009BB21BB27A6A0232520079680A4412885C
:1027300011B23A6901FA02F292B212B202FB03F349
:10274000BA681344BB607B6A03335B007A68134446
:102750001B881AB23B6902FA03F39BB21BB27A6A76
:102760000332520079680A44128811B23A6901FAB8
:1027700002F292B212B202FB03F3BA681344BB60D6
:10278000BB689B117A6913447B617B6A04337B626B
:102790007A6A3B689A42FFF67FAF7A693B6892FBA0
:1027A000F3F31846FFF784F803461A463B69C3F172
:1027B000030302FA03F39BB21BB218462837BD4647
:1027C00080BD00BF80B489B000AFF860B9607A60A6
:1027D0003B600123BB610023FB6114E0FB699B00AC
:1027E000FA6813441B683B613B69002B02DA3B69C2
:1027F0005B423B613A69BB699A4201DB3B69BB6161
:10280000FB690133FB61FA693B689A42E6DB00230E
:102810007B6105E07B6901337B61BB695B10BB6158
:10282000BA697B689A42F5DC0023FB6110E0FB6922
:102830005B00BA681344FA699200F9680A441168A7
:102840007A6941FA02F292B21A80FB690133FB61A4
:10285000FA693B689A42EADB7B6918462437BD4631
:102860005DF8047B704700BF80B58AB004AFF860A4
:10287000B9607A603B60FB6A5B4203F00303FA6A6B
:102880001344FB62BB6A9B00FA6A1344FB62BB6A97
:102890009B005B42FA6A13443B6100237B6108E0C2
:1028A0007B699B003A69134400221A607B690133FB
:1028B0007B617A69BB6A9A42F2DB7B6A0093BB6AEE
:1028C00001933B690293FB6A0393F868B9687A68DD
:1028D0003B6A04F0A9F900237B6108E07B699B0057
:1028E0003A69134400221A607B6901337B617A697B
:1028F000BB6A9A42F2DBBB6A00933B690193FB6AB5
:102900000293386A39683A6A7B6A04F085FA1837A4
:10291000BD4680BD80B5AAB000AFF860B9607A60EE
:102920003B600023C7F8A4301FE07A681346DB073A
:102930009A1AD7F8A430134403F10043033B5B0019
:10294000FA681344F86819463A68FEF723FE02460F
:10295000D7F8A4309B0007F1A8010B4443F8982C4A
:10296000D7F8A4300133C7F8A430D7F8A430062B29
:10297000DBDD0023C7F8A43097E00023C7F8A030C0
:1029800089E00023C7F88430D7F8A030C3F10303EF
:10299000C7F88C30D7F88C30002B02DA0023C7F848
:1029A0008C30D7F8A030C3F10A03C7F88830D7F8C5
:1029B0008830072B02DD0723C7F88830D7F88C3022
:1029C000C7F89C304BE046F2A802C0F60102D7F8E7
:1029D000A4100B46DB005B1AD7F89C100B4432F8AE
:1029E00013301AB2D7F8A010D7F89C300B44033B31
:1029F0009B0007F1A8010B4453F8983CDB139BB2F2
:102A00001BB203FB02F046F2A802C0F60102D7F89F
:102A1000A4100B46DB005B1AD7F89C100B4432F86D
:102A200013301AB2D7F8A010D7F89C300B44033BF0
:102A30009B0007F1A8010B4453F8983C9BB2C3F3E9
:102A40000E0303FB02F3DB130344D7F88420134483
:102A5000C7F88430D7F89C300133C7F89C30D7F8DA
:102A60009C20D7F888309A42ADDBD7F8A4305A1CA6
:102A70001346DB009B1AD7F8A02013449B0007F1F4
:102A8000A8021344D7F8842043F8982CD7F8A03034
:102A90000133C7F8A030D7F8A030062B7FF771AF0D
:102AA000D7F8A4300133C7F8A430D7F8A430022BEC
:102AB0007FF763AF0023C7F89030D7F89030C7F89E
:102AC00094303B69C7F898300023C7F8A4303BE046
:102AD0000023C7F8A0302EE0D7F8A4201346DB006F
:102AE0009B1AD7F8A02013449B0007F1A8010B44C0
:102AF00053F8982CD7F898309A4217DDD7F8A420CD
:102B00001346DB009B1AD7F8A02013449B0007F163
:102B1000A802134453F8983CC7F89830D7F8A4306B
:102B2000C7F89430D7F8A030C7F89030D7F8A03065
:102B30000133C7F8A030D7F8A030062BCCDDD7F88A
:102B4000A4300133C7F8A430D7F8A430032BBFDD7D
:102B50000023C7F8A4305FE00023C7F88030D7F81F
:102B60009430002B37DD0023C7F89C302EE0D7F8D7
:102B700090207B68D31ADA1ED7F8A4301A44D7F80D
:102B80009C30134403F10043033B5B00FA68134499
:102B90001B8818B2D7F89430591E46F2A802C0F626
:102BA00001020B46DB005B1AD7F89C100B4432F88D
:102BB00013301BB203FB00F3D7F880201344C7F88F
:102BC0008030D7F89C300133C7F89C30D7F89C3060
:102BD000062BCCDD0FE0D7F890207B68D31ADA1EE5
:102BE000D7F8A43013445B00FA6813441B881BB267
:102BF000DB03C7F88030D7F8A4305B00BA68134411
:102C0000D7F8802002F58042D21392B21A80D7F80A
:102C1000A4300133C7F8A430D7F8A4203B689A4207
:102C20009ADB7A68D7F89030D31A03331846A8375E
:102C3000BD4680BDB0B592B000AFF860B9607A60B3
:102C40003B6000233B62FB6DFB61BB6E5B4203F0AC
:102C50000103BA6E1344BB66BB6D9B00BA6E13448E
:102C6000BB66BB6D9B005B42BA6E1344BB61F868E8
:102C7000B969FA695023FFF74DFEFA693B6E9A4233
:102C80000CDDBB6D5B00BA691A44FB695B00F86838
:102C900011461A465023FFF73DFE0BE0BB6D5B006B
:102CA000BA691A44FB695B42F86811461A46502318
:102CB000FFF730FE00237B6411E07B6C5B00FA6859
:102CC00013441B881BB2002BB8BF5B42B3F5804F87
:102CD00002DB01233B6206E07B6C01337B647A6C90
:102CE000BB6D9A42E9DB3B6A002B2ED000237B644C
:102CF0000FE07B6C5B00FA6813447A6C5200F96851
:102D00000A44128812B2521092B21A807B6C0133BC
:102D10007B647A6CBB6D9A42EBDB00237B640FE033
:102D20007B6C5B00BA6913447A6C5200B9690A443F
:102D3000128812B2521092B21A807B6C01337B64FB
:102D4000BB6D5A007B6C9A42EADCB869B969BA6D0E
:102D5000FEF720FC034603F57A731846FEF7A8FD3C
:102D60000346FB87BB6D5B00BA691A44BB6D5B0011
:102D7000B9690B4410461946BA6DFEF70BFC0346C1
:102D800003F57A731846FEF793FD0346BB87F86890
:102D9000F968BA6DFEF7FEFB034601331846FEF7ED
:102DA00087FD0346FB82B869F968BA6DFEF7F2FB4E
:102DB000B863BB6B002B01DA0023BB63BB6D5B0008
:102DC000BA6913441846F968BA6DFEF7E3FB7863F5
:102DD0007B6B002B01DA00237B63B7F93E309A014D
:102DE000B7F916309A4207DAB7F9163020339B113B
:102DF0009BB201339BB2FB87B7F93C309A01B7F91C
:102E000016309A4207DAB7F9163020339B119BB27D
:102E100001339BB2BB87B7F93E30B7F9162002FBEE
:102E200003F2BB6B9A4203DA4FF48043FB8516E052
:102E3000B7F916305B109BB21AB2BB6B1A44B7F9E4
:102E4000163092FBF3F39A03B7F93E305B109BB256
:102E50001BB21A44B7F93E3092FBF3F3FB85B7F986
:102E60003C30B7F9162002FB03F27B6B9A4203DA7F
:102E70004FF48043BB8516E0B7F916305B109BB268
:102E80001AB27B6B1A44B7F9163092FBF3F39A032C
:102E9000B7F93C305B109BB21BB21A44B7F93C3017
:102EA00092FBF3F3BB85B7F916301A02B7F93E303F
:102EB0005B109BB21BB21A44B7F93E3092FBF3F39E
:102EC000BB82B7F916301A02B7F93C305B109BB2DF
:102ED0001BB21A44B7F93C3092FBF3F37B82B7F98B
:102EE0006430002B1CDDB7F9643043F2333202FB4F
:102EF00003F3DB139BB203F6F6039BB27B857B8D5A
:102F0000A3F6F6039BB29BB21BB246F6146202FB19
:102F100003F39B139BB203F580439BB23B8503E015
:102F200000233B853B8D7B85B7F92830B7F92E20F0
:102F300002FB03F3DB139BB21BB2B7F92E2002FB9B
:102F400003F35B139BB2C3F5FF437F339BB2FB8458
:102F5000B7F92830B7F92C2002FB03F3DB139BB23F
:102F60001BB2B7F92C2002FB03F35B139BB2C3F532
:102F7000FF437F339BB2BB84B7F92620B7F92A30D1
:102F80009A4201DA7B8DFB84B7F92420B7F92A3005
:102F90009A4201DA7B8DBB84B7F92A309A03B7F9DC
:102FA00026305B109BB21BB21A44B7F9263092FB55
:102FB000F3F3FB84B7F92A309A03B7F924305B1096
:102FC0009BB21BB21A44B7F9243092FBF3F3BB84D3
:102FD000FA693B6E9A421EDDB7F92630B7F9142024
:102FE00002FB03F39B139BB21BB245F69A1202FB42
:102FF00003F3DB137B86B7F92430B7F9122002FB09
:1030000003F39B139BB21BB242F2666202FB03F313
:10301000DB133B861DE0B7F92630B7F9142002FB1D
:1030200003F39B139BB21BB244F6CD4202FB03F3A6
:10303000DB137B86B7F92430B7F9122002FB03F3C8
:103040009B139BB21BB244F6CD4202FB03F3DB138E
:103050003B8600237B642AE07B6C5B00BA681344E8
:103060007A6C5200F9680A44128891B2B7F932209A
:10307000786C4000BC692044008800B200FB02F07C
:10308000B7F930207D6CBC6D2C446400BD692C44C4
:10309000248824B204FB02F202448032121292B25B
:1030A0000A4492B292B21A807B6C01337B647A6CD0
:1030B000BB6D9A42D0DBB868B96DFFF727FA0346BB
:1030C000A7F84030F868B96DFFF720FA0346A7F873
:1030D0004230B7F94230002B02DC0123A7F842301E
:1030E000B7F94030002B02DC0123A7F84030B7F9D4
:1030F0004220B7F940309A4203DDB7F84030A7F8D4
:103100004230B7F942309A03B7F940305B109BB2B6
:103110001BB21A44B7F9403092FBF3F33B82002311
:103120007B6413E07B6C5B00BA681344B7F9102032
:10313000796C4900B8680144098809B201FB02F2C0
:10314000921392B21A807B6C01337B647A6CBB6DF4
:103150009A42E7DB3B6A002B42D000237B640FE0FE
:103160007B6C5B00FA6813447A6C5200F9680A447D
:10317000128812B2520092B21A807B6C01337B64C7
:103180007A6CBB6D9A42EBDB00237B6424E07B6CA2
:103190005B00BA681A447B6C5B00B9680B441B88FF
:1031A0001BB2B3F5804F11DA7B6C5B00B9680B443E
:1031B0001B8819B24CF20103CFF6FF739942A8BFE6
:1031C0000B469BB21BB25B009BB201E047F6FE735D
:1031D00013807B6C01337B647A6CBB6D9A42D6DBC7
:1031E0004837BD46B0BD00BF80B582B000AF786043
:1031F0007B68184601210BF07BFE03461846083712
:10320000BD4680BD80B582B000AF786039603B6854
:10321000786819460CF0ACFA034618460837BD46E4
:1032200080BD00BF80B582B000AF786040F25033FF
:10323000C2F200031B68DB68184646F2D401C0F6F0
:1032400001017A680BF0A6FE0837BD4680BD00BFBD
:1032500080B582B000AF786040F25033C2F2000314
:103260001B68DB68184646F2E401C0F601017A6883
:103270000BF090FE0837BD4680BD00BF80B582B020
:1032800000AF78604FF4FA60FFF7AEFF02467B684C
:103290001A607B681B68002B00D109E07B684FF443
:1032A000FA629A617B6801221A61786800F004F87A
:1032B0000837BD4680BD00BF80B483B000AF7860E2
:1032C0007B681B6800221A707B6800225A607B684A
:1032D00000229A607B680022DA607B6800225A61D3
:1032E0000C37BD465DF8047B704700BF80B588B0E1
:1032F00000AFF860B9607A607B68BB61FB689A696F
:10330000BB699A422DDA46F2F800C0F60100FFF7D9
:103310009FFFFB681B69002B1AD0FB681B681846CF
:10332000B969FFF76FFF78617B69002B06D0FB68F6
:10333000BA699A61FB687A691A6012E0FB689B6956
:10334000BB6146F22010C0F60100FFF76BFF08E0FA
:1033500046F25010C0F60100FFF764FFFB689B695E
:10336000BB610023FB610BE0FB681A68FB69134437
:10337000FA69B9680A4412781A70FB690133FB6173
:10338000FA69BB699A42EFDBBB69DA00FB685A60F5
:10339000FB6800229A60FB680022DA60FB6800226A
:1033A0005A612037BD4680BD80B58AB000AFF86055
:1033B000B9607A607B683B62FB68DB68FB61FB6835
:1033C0009B68BB61FB685B687B61F86800F054F93F
:1033D000FB68FA69DA60FB68BA699A60FB687A6927
:1033E0005A60FB685B680733DA103B6A9A4204DA7A
:1033F000FB685B680733DB103B6200237B620BE0FA
:103400007B6ABA681344FA6811687A6A0A441278C7
:103410001A707B6A01337B627A6A3B6A9A42EFDBFD
:103420003B6A18462837BD4680BD00BF80B588B0CE
:1034300000AFF860B9607A60BB68FB61FB689A68AE
:10344000FB68D9687B680B44DB101A44FB689B69F6
:103450009A4230DB46F2C010C0F60100FFF7F8FEDA
:10346000FB681B69002B1FD0FB689B695A1D134624
:103470005B0013445B10BB61FB681B681846B969AD
:10348000FFF7C0FE78617B69002B06D0FB68BA6944
:103490009A61FB687A691A600DE046F2E010C0F6A6
:1034A0000100FFF7BFFE4AE046F20C20C0F6010023
:1034B000FFF7B8FE43E03FE07B68013BFA6922FA80
:1034C00003F303F001033B61FB681A68FB689B6828
:1034D0001344FA681168FA6892680A441278D1B203
:1034E000FA68D268C2F10702386900FA02F2D2B271
:1034F0000A43D2B2D2B21A70FB68DB685A1CFB686E
:10350000DA60FB68DB68082B0ED1FB680022DA600A
:10351000FB689B685A1CFB689A60FB681A68FB682A
:103520009B68134400221A70FB685B685A1CFB6896
:103530005A607B68013B7B607B68002BBCD12037E5
:10354000BD4680BD80B485B000AF7860396000238F
:10355000FB607B689B68DA007B68DB681A443B6829
:103560001A447B685B689A4202DD7B6801225A61DB
:103570007B685B69002B01D000232DE028E0FB680D
:103580005B00FB607B681A687B689B6813441B7850
:103590001A467B68DB68C3F1070342FA03F303F0C2
:1035A0000103FA681343FB607B68DB685A1C7B6885
:1035B000DA607B68DB68082B07D17B680022DA6061
:1035C0007B689B685A1C7B689A603B68013B3B6048
:1035D0003B68002BD3D1FB6818461437BD465DF815
:1035E000047B704780B483B000AF786039607B683B
:1035F0009B68DA007B68DB681A443B681A447B6886
:103600005B689A4203DC7B685B69002B03D07B68B4
:1036100001225A6111E07B689A687B68D9683B682F
:103620000B44DB101A447B689A607B68DA683B685D
:10363000134403F007027B68DA600C37BD465DF87F
:10364000047B704780B483B000AF78607B685B69AF
:10365000002B02D04FF0FF3308E07B685A687B688C
:103660009B68D9007B68DB680B44D31A18460C377B
:10367000BD465DF8047B704780B582B000AF7860CE
:103680007B68DB68002B05D0786800210122FFF7FA
:10369000CDFE05E004E0786801210122FFF7C6FEB7
:1036A0007B68DB68002BF6D10837BD4680BD00BFC4
:1036B00080B483B000AF0346FB8040F66023C2F2C3
:1036C0000003B3F8C23301339AB240F66023C2F26A
:1036D0000003A3F8C22340F66023C2F20003B3F84C
:1036E000C233B3F5F07F2CD840F66023C2F200035A
:1036F000B3F8C6331A4640F66023C2F20003F988D5
:1037000023F8121040F66023C2F20003B3F8C63368
:1037100001339AB240F66023C2F20003A3F8C62335
:1037200040F66023C2F20003B3F8C633B3F5F07F6E
:1037300016D340F66023C2F200030022A3F8C6238A
:103740000EE040F66023C2F200034FF4F072A3F8DB
:10375000C22340F66023C2F20003012283F8C02393
:103760000C37BD465DF8047B704700BF80B483B062
:1037700000AF0023FB8040F66023C2F20003B3F8E1
:10378000C233002B39D040F66023C2F20003B3F8F5
:10379000C4331A4640F66023C2F2000333F81230F5
:1037A000FB8040F66023C2F20003B3F8C433013358
:1037B0009AB240F66023C2F20003A3F8C42340F695
:1037C0006023C2F20003B3F8C433B3F5F07F06D32D
:1037D00040F66023C2F200030022A3F8C42340F69F
:1037E0006023C2F20003B3F8C233013B9AB240F641
:1037F0006023C2F20003A3F8C223FB881BB2184661
:103800000C37BD465DF8047B704700BF80B400AF45
:1038100040F66023C2F20003B3F8C2331846BD4637
:103820005DF8047B704700BF80B400AFBD465DF813
:10383000047B704780B584B000AF78600B467B8016
:103840000023FB8140F6D903C2F200031B78012B51
:1038500021D10023FB811AE0FB895B007A681344C5
:103860001B88BB81B7F90C30DA0F13445B10BB81A6
:10387000B7F90C30184600F073F90346BB81B7F96D
:103880000C301846FFF714FFFB890133FB81FA89DE
:103890007B889A42E0D31037BD4680BD80B582B0A8
:1038A00000AF40F6E103C2F200031B78002B6BD19E
:1038B00040F6E103C2F2000301221A7040F6D80379
:1038C000C2F200031B78DBB2002B18D140F6E203F2
:1038D000C2F200031B881A46531C99B240F6E20359
:1038E000C2F20003198041F2F473C2F2000333F80C
:1038F000122040F6E403C2F200031A8017E040F6FB
:10390000E203C2F200031B881A46531C99B240F628
:10391000E203C2F20003198041F2A063C2F2000385
:1039200033F8122040F6E403C2F200031A8040F696
:10393000E203C2F200031B889F2B20D940F6E2036A
:10394000C2F2000300221A8040F20403C2F2000314
:1039500001221A7040F6D803C2F200031B78DBB2D2
:10396000002B06D140F6D803C2F2000301221A70E0
:1039700005E040F6D803C2F2000300221A704FF4AB
:10398000FA5003F0C9FA05E040F6E103C2F2000381
:1039900000221A7040F6E403C2F200031B88FB8089
:1039A000FB881BB21846FCF7EDFD0837BD4680BD0D
:1039B00090B482B000AF40F61C23C2F2000342F67E
:1039C000E0625A6040F61C23C2F200034FF47A52C0
:1039D0001A6040F61C23C2F200031A6840F61C234A
:1039E000C2F200035B68D21A46F26763C6F26663EE
:1039F00083FB02135910D317CB1A3B6040F61C23EC
:103A0000C2F2000344F277521A630123FB8023E0E1
:103A1000B7F90600B7F906305A1E40F61C23C2F269
:103A200000030C3253F8223044F2775202FB03F2C7
:103A300048F6AD33C6F6DB0383FB02C31913D31775
:103A4000C91A40F61C23C2F2000300F10C0243F82D
:103A50002210FB880133FB80B7F90630042BD7DD39
:103A600040F61C23C2F200035A683B681A4440F631
:103A70001C23C2F20003DA610123FB8019E0B7F9CD
:103A80000600B7F90630013B40F61C22C2F20002E4
:103A900006339B0013445A683B68D11840F61C2239
:103AA000C2F20002831D9B0013445960FB8801335E
:103AB000FB80B7F90630042BE1DD40F61C23C2F28F
:103AC00000031B6B3A6802FB03F248F6AD33C6F6FF
:103AD000DB0383FB02131913D317CA1A40F61C2306
:103AE000C2F200035B681A4440F61C23C2F20003D2
:103AF0009A600123FB802BE0B7F90600B7F9063086
:103B00005A1E40F61C23C2F20003023253F8221060
:103B1000B7F9062040F61C23C2F200030C3253F81A
:103B200022303A6802FB03F248F6AD33C6F6DB03F7
:103B300083FB02C31C13D317E31A194440F61C235A
:103B4000C2F20003821C43F82210FB880133FB8081
:103B5000B7F90630042BCFDD0837BD4690BC70475F
:103B600080B485B000AF0346FB80FB88FB81B7F9CA
:103B70000630BB600023BB81BB68B3F57A5F40F3BE
:103B80008680B7F9062040F61C23C2F200039B682A
:103B90009A4229DAB7F9062040F61C23C2F2000344
:103BA0005B689A4220DD40F61C23C2F200035B688A
:103BB000BA68D31A42F2107202FB03F2B7F90C1082
:103BC00040F61C23C2F200030C3153F8213092FB63
:103BD000F3F39AB240F61C23C2F200035B689BB277
:103BE00013449BB2FB8151E00123BB8149E0B7F94B
:103BF0000620B7F90C1040F61C23C2F20003023174
:103C000053F821309A4239DAB7F90620B7F90C3067
:103C1000591E40F61C23C2F20003023153F8213032
:103C20009A422BDDB7F90C305A1E40F61C23C2F223
:103C30000003023253F82230BA68D31A42F21072EB
:103C400002FB03F2B7F90C1040F61C23C2F200038A
:103C50000C3153F8213092FBF3F399B2B7F90C30E1
:103C6000013B40F61C22C2F2000206339B001344C3
:103C70005B689BB20B449BB2FB8107E0BB890133BD
:103C8000BB81B7F90C30042BB1DD91E090E0BB684B
:103C900013F57A5F80F28A80B7F9062040F61C237C
:103CA000C2F200039B685B429A422ADDB7F9062004
:103CB00040F61C23C2F200035B685B429A4220DAA2
:103CC00040F61C23C2F200035A68BB68134442F258
:103CD000107202FB03F2B7F90C1040F61C23C2F27B
:103CE00000030C3153F8213092FBF3F39AB240F603
:103CF0001C23C2F200035B689BB2D31A9BB2FB8108
:103D000053E00123BB814BE0B7F90620B7F90C1053
:103D100040F61C23C2F20003023153F821305B420B
:103D20009A423ADDB7F90620B7F90C30591E40F631
:103D30001C23C2F20003023153F821305B429A4245
:103D40002BDAB7F90C305A1E40F61C23C2F20003DE
:103D5000023253F82220BB68134442F2107202FB75
:103D600003F2B7F90C1040F61C23C2F200030C3129
:103D700053F8213092FBF3F399B2B7F90C30013BC1
:103D800040F61C22C2F2000206339B0013445B681B
:103D90009BB2CB1A9BB2FB8107E0BB890133BB818D
:103DA000B7F90C30042BAFDD02E001E0BB68FB810A
:103DB000FB891BB218461437BD465DF8047B70477B
:103DC00090B5ADF5057D00AF012387F8FF310023E5
:103DD000C7F80C320023C7F808323B1DC7F8F8318A
:103DE00007F5CA73C7F8003202F0E0FC50204FF428
:103DF000FA51FCF72BFAFCF715FF03F06FF8FCF70C
:103E0000CBFF00F085FA00F025FA02F025FDFFF760
:103E1000CFFD0020FCF7B6FB40F6D903C2F2000349
:103E200001221A7040F20403C2F200031B78DBB2D5
:103E3000012B74D1FFF7EAFC03469F2B6FD940F2A8
:103E40000403C2F2000300221A700023A7F806320E
:103E50000EE0B7F806325B00D7F8F821D418FFF768
:103E600085FC03462380B7F806320133A7F80632F3
:103E7000B7F806329F2BECD997F8FF31012B05D10B
:103E8000D7F8F80100F01AFAC7F8000297F8FF31E6
:103E9000012B06D1D7F8000200F050FAC7F80C0247
:103EA00003E0D7F8F831C7F80C3240F6D803C2F275
:103EB00000031B78DBB2002B06D141F2A063C2F2F3
:103EC0000003C7F8083205E041F2F473C2F20003C0
:103ED000C7F808320023A7F8063212E0B7F8063216
:103EE0005B00D7F808221344B7F806225200D7F82F
:103EF0000C120A4412881A80B7F806320133A7F868
:103F00000632B7F806329F2BE8D940F20403C2F21A
:103F1000000300221A70322003F042F882E781E7A2
:103F200080B483B000AF786039604FF46053C4F25E
:103F300002037A6891013A6812070A43C3F88420A1
:103F40000C37BD465DF8047B704700BF80B483B07A
:103F500000AF0346FB716823C4F24723FA791A6065
:103F60000C37BD465DF8047B704700BF80B489B054
:103F700000AF78600023BB6100237B610023FB61FD
:103F800002233B610023FB600223BB604FF46053BC
:103F9000C4F202039B6803F00C03BB61BB69042BF2
:103FA0000AD0082B0FD0002B5AD17A684FF4105347
:103FB000C0F2F40313605AE07A684FF49053C0F2F1
:103FC0007A03136053E04FF46053C4F202035B685A
:103FD00003F480039B0DFB604FF46053C4F20203B3
:103FE0005B6803F03F03BB60FB68002B13D04FF40A
:103FF0009053C0F27A03BA68B3FBF2F24FF4605305
:10400000C4F20203596847F6C0730B409B0903FBD7
:1040100002F3FB6112E04FF41053C0F2F403BA68EC
:10402000B3FBF2F24FF46053C4F20203596847F64F
:10403000C0730B409B0903FB02F3FB614FF4605319
:10404000C4F202035B6803F440331B0C01335B00D2
:104050003B61FA693B69B2FBF3F27B681A6006E0E8
:104060007A684FF41053C0F2F403136000BF4FF4AA
:104070006053C4F202039B6803F0F003BB61BB69A9
:104080001B09BB6140F22803C2F20003BA69134462
:104090001B78DBB27B617B681A687B69DA407B68DE
:1040A0005A604FF46053C4F202039B6803F4E05378
:1040B000BB61BB699B0ABB6140F22803C2F20003EB
:1040C000BA6913441B78DBB27B617B685A687B69F1
:1040D000DA407B689A604FF46053C4F202039B6835
:1040E00003F46043BB61BB695B0BBB6140F2280317
:1040F000C2F20003BA6913441B78DBB27B617B68B0
:104100005A687B69DA407B68DA602437BD465DF81F
:10411000047B704780B483B000AF78600B46FB70BF
:10412000FB78002B0CD04FF46053C4F202034FF421
:104130006052C4F20202116B7A680A431A630CE0FF
:104140004FF46053C4F202034FF46052C4F202020F
:10415000116B7A68D2430A401A630C37BD465DF88A
:10416000047B704780B483B000AF78600B46FB706F
:10417000FB78002B0CD04FF46053C4F202034FF4D1
:104180006052C4F20202116C7A680A431A640CE0AD
:104190004FF46053C4F202034FF46052C4F20202BF
:1041A000116C7A68D2430A401A640C37BD465DF838
:1041B000047B704780B483B000AF78600B46FB701F
:1041C000FB78002B0CD04FF46053C4F202034FF481
:1041D0006052C4F20202116A7A680A431A620CE061
:1041E0004FF46053C4F202034FF46052C4F202026F
:1041F000116A7A68D2430A401A620C37BD465DF8EC
:10420000047B704780B483B000AF78600B46FB70CE
:10421000FB78002B0CD04FF46053C4F202034FF430
:104220006052C4F20202516A7A680A435A620CE090
:104230004FF46053C4F202034FF46052C4F202021E
:10424000516A7A68D2430A405A620C37BD465DF81B
:10425000047B704780B582B000AF00237B6041F6DD
:104260003410C2F20000FFF709F846F25C60C0F6B5
:104270000100FCF7F7FC024640F6EC03C2F2000333
:104280001A6004237B6040F6EC03C2F200031A6854
:104290003B1D104604211A46FCF728FD02237B60D3
:1042A00040F6EC03C2F200031A683B1D10461021D1
:1042B0001A46FCF71BFD0837BD4680BD80B584B0AB
:1042C00000AF786041F6FC33C2F20003FB6041F6B8
:1042D0003410C2F20000FEF7EFFF40F6EC03C2F22A
:1042E00000031B681846796841F63412C2F20002D6
:1042F000FCF7D4FC41F63410C2F20000F968142235
:10430000FFF752F8FB6818461037BD4680BD00BF66
:1043100080B500AF46F25C60C0F60100FCF7B0FC6F
:10432000024640F6E803C2F200031A6041F6581054
:10433000C2F20000FEF7A2FF80BD00BF80B582B0D0
:1043400000AF786041F65810C2F20000796814227C
:10435000FEF7CCFF40F6E803C2F200031B681846E4
:1043600041F65811C2F2000141F6BC22C2F200022D
:10437000FCF7A8FC41F65810C2F20000FEF79CFFC3
:1043800041F6BC23C2F2000318460837BD4680BD83
:1043900090B48AB000AFF860B9607A60BB681B88DF
:1043A000FB83BB681B88002B11D100237B6208E0D4
:1043B0007B6A5B00FA68134400221A807B6A01332F
:1043C0007B627A6A7B689A42F2DB0023C9E00023B1
:1043D0007B62BFE07B6A01335B00BA6813441B88D1
:1043E0001BB25B035B42BB6100233B6215E03B6A8F
:1043F0005B00FA6813441B881BB2796A3A6A8A1A0E
:104400005200B9680A44128812B202FB03F3BA6977
:10441000D31ABB613B6A01333B623A6A7B6A9A42B8
:10442000E5DBB7F91E3001335A10BB691A44FB8B28
:1044300008339BB29BB21BB292FBF3F3FB827B6A05
:104440005B00FA681344FA8A1A8000233B6245E055
:104450003B6A5B00FA6813441B88BB823B6A5B00C3
:10446000FA6813443A6A5200F9680A44128891B211
:10447000B7F91620786A441E386A201A4000FC6892
:104480002044008800B200FB02F202F58052521371
:1044900092B20A4492B292B21A807B6A5A1E3B6A66
:1044A000D31A5B00FA6813447A6A511E3A6A8A1A70
:1044B0005200F9680A44128891B2B7F91620B7F988
:1044C000140000FB02F202F58052521392B20A4429
:1044D00092B292B21A803B6A01333B627B6A5A10F5
:1044E0003B6A9A42B4DC7B6A03F00103002B1BD0C9
:1044F0003B6A5B00FA6813443A6A5200F9680A445E
:10450000128891B23A6A5200F8680244128812B2D4
:10451000B7F9160000FB02F202F58052521392B274
:104520000A4492B292B21A80FA8BB7F91630B7F9F0
:104530001E10B7F9160000FB01F1491389B209B248
:1045400001FB03F35B139BB2D31A9BB2FB837B6A21
:1045500001337B627A6A7B689A42FFF63BAFB7F918
:104560001E3018462837BD4690BC704780B48BB0CB
:1045700000AFF860B9607A603B600123BB61002343
:10458000FB6114E0FB695B00FA6813441B881BB2F3
:10459000FA695200F9680A44128812B202FB03F366
:1045A0001B12BA691344BB61FB690133FB61FA69F1
:1045B0003B689A42E6DBBA693B681344BB61082357
:1045C0007B6105E07B69013B7B61BB695B00BB6193
:1045D0007B69002B03D0BB69B3F1804FF2DB122360
:1045E0003B6105E03B69013B3B61BB695B00BB6133
:1045F0003B69002B03D0BB69B3F1804FF2DB002392
:104600003B622EE000237B623B6AFB6118E0FB69A2
:104610005B00FA6813441B881BB2F9693A6A8A1A6C
:104620005200F9680A44128812B202FB03F27B6955
:1046300042FA03F37A6A13447B62FB690133FB613C
:10464000FA693B689A42E2DB3B6A5B00BA68134452
:10465000796A3A6941FA02F292B21A803B6A0133EE
:104660003B623A6A7B689A42CCDB2C37BD465DF8E8
:10467000047B704780B487B000AF0346B9607A60AE
:10468000FB8100237B6105E0BB680233BB607B6973
:1046900001337B617B685A1E7B699A4206DDBB68E9
:1046A0001B88B7F90E201BB29A42EDDC7B691846D5
:1046B0001C37BD465DF8047B704700BF80B487B0EF
:1046C00000AFF860B9607A6000237B6105E0BB68E9
:1046D0000433BB607B6901337B617B685A1E7B6955
:1046E0009A4204DDBB681A68FB689A42EFDB7B697B
:1046F00018461C37BD465DF8047B704790B486B001
:1047000000AFF8607A603B600B467B8100237B61E1
:104710001EE07B695B00FA6813447A695200F9680D
:104720000A44128891B2B7F90A20786940007C687F
:104730002044008800B200FB02F202F580525213BE
:1047400092B28A1A92B292B21A807B6901337B616B
:104750007A693B689A42DCDB1837BD4690BC7047EB
:1047600090B5ADF28C4D06AF07F10C04206007F157
:1047700008000160391D0A603A4613602023C7F81B
:1047800048340A23C7F8443407F5CC73C7F84034DB
:1047900046F61003C0F60103C7F83C34D7F8883456
:1047A0005B0007F1C80107F10C02084611681A46C0
:1047B0000AF0CEFE0023C7F8603400F0AFBCD7F893
:1047C0006034D7F8442402FB03F35B0007F5CC7296
:1047D0001344C7F838340023C7F85C3419E0D7F81D
:1047E0006034D7F8442402FB03F2D7F85C34134456
:1047F000D7F83C2413441B785BB299B207F1140339
:10480000D7F85C2423F81210D7F85C340133C7F8CA
:104810005C34D7F85C24D7F844349A42DFDB07F5E0
:104820008C73D7F86024002143F8221007F1140399
:104830001B881BB2D7F89024128812B202FB03F334
:10484000C7F83434D7F834345B13A7F8323407F59B
:104850008C73D7F8602453F82220B7F93234B7F9B3
:10486000321401FB03F3D11807F58C73D7F86024D9
:1048700043F82210D7F83834B7F832241A8007F1F9
:1048800014031B881BB2D7F890240232128812B28C
:1048900002FB03F3C7F8343407F114035B881BB23F
:1048A000D7F89024128812B202FB03F3D7F834240D
:1048B0001344C7F83434D7F834345B13A7F83234D0
:1048C00007F58C73D7F8602453F82220B7F93234F7
:1048D000B7F9321401FB03F3D11807F58C73D7F83D
:1048E000602443F82210D7F838340233B7F8322462
:1048F0001A8007F114031B881BB2D7F890240432E6
:10490000128812B202FB03F3C7F8343407F1140320
:104910005B881BB2D7F890240232128812B202FBD5
:1049200003F3D7F834241344C7F8343407F11403DD
:104930009B881BB2D7F89024128812B202FB03F3B3
:10494000D7F834241344C7F83434D7F834345B131D
:10495000A7F8323407F58C73D7F8602453F8222077
:10496000B7F93234B7F9321401FB03F3D11807F564
:104970008C73D7F8602443F82210D7F83834043306
:10498000B7F832241A8007F114031B881BB2D7F83A
:1049900090240632128812B202FB03F3C7F83434B3
:1049A00007F114035B881BB2D7F8902404321288F5
:1049B00012B202FB03F3D7F834241344C7F834349B
:1049C00007F114039B881BB2D7F890240232128897
:1049D00012B202FB03F3D7F834241344C7F834347B
:1049E00007F11403DB881BB2D7F89024128812B2A7
:1049F00002FB03F3D7F834241344C7F83434D7F850
:104A000034345B13A7F8323407F58C73D7F860247D
:104A100053F82220B7F93234B7F9321401FB03F30B
:104A2000D11807F58C73D7F8602443F82210D7F813
:104A300038340633B7F832241A8007F114031B8880
:104A40001BB2D7F890240832128812B202FB03F38B
:104A5000C7F8343407F114035B881BB2D7F89024ED
:104A60000632128812B202FB03F3D7F8342413443F
:104A7000C7F8343407F114039B881BB2D7F890248D
:104A80000432128812B202FB03F3D7F83424134421
:104A9000C7F8343407F11403DB881BB2D7F890242D
:104AA0000232128812B202FB03F3D7F83424134403
:104AB000C7F8343407F114031B891BB2D7F89024CC
:104AC000128812B202FB03F3D7F834241344C7F858
:104AD0003434D7F834345B13A7F8323407F58C73C9
:104AE000D7F8602453F82220B7F93234B7F93214DA
:104AF00001FB03F3D11807F58C73D7F8602443F852
:104B00002210D7F838340833B7F832241A8007F166
:104B100014031B881BB2D7F890240A32128812B2F1
:104B200002FB03F3C7F8343407F114035B881BB2AC
:104B3000D7F890240832128812B202FB03F3D7F898
:104B400034241344C7F8343407F114039B881BB290
:104B5000D7F890240632128812B202FB03F3D7F87A
:104B600034241344C7F8343407F11403DB881BB230
:104B7000D7F890240432128812B202FB03F3D7F85C
:104B800034241344C7F8343407F114031B891BB2CF
:104B9000D7F890240232128812B202FB03F3D7F83E
:104BA00034241344C7F8343407F114035B891BB26F
:104BB000D7F89024128812B202FB03F3D7F83424FA
:104BC0001344C7F83434D7F834345B13A7F83234BD
:104BD00007F58C73D7F8602453F82220B7F93234E4
:104BE000B7F9321401FB03F3D11807F58C73D7F82A
:104BF000602443F82210D7F838340A33B7F8322447
:104C00001A8007F114031B881BB2D7F890240C32CA
:104C1000128812B202FB03F3C7F8343407F114030D
:104C20005B881BB2D7F890240A32128812B202FBBA
:104C300003F3D7F834241344C7F8343407F11403CA
:104C40009B881BB2D7F890240832128812B202FB5C
:104C500003F3D7F834241344C7F8343407F11403AA
:104C6000DB881BB2D7F890240632128812B202FBFE
:104C700003F3D7F834241344C7F8343407F114038A
:104C80001B891BB2D7F890240432128812B202FB9F
:104C900003F3D7F834241344C7F8343407F114036A
:104CA0005B891BB2D7F890240232128812B202FB41
:104CB00003F3D7F834241344C7F8343407F114034A
:104CC0009B891BB2D7F89024128812B202FB03F31F
:104CD000D7F834241344C7F83434D7F834345B138A
:104CE000A7F8323407F58C73D7F8602453F82220E4
:104CF000B7F93234B7F9321401FB03F3D11807F5D1
:104D00008C73D7F8602443F82210D7F838340C336A
:104D1000B7F832241A8007F114031B881BB2D7F8A6
:104D200090240E32128812B202FB03F3C7F8343417
:104D300007F114035B881BB2D7F890240C32128859
:104D400012B202FB03F3D7F834241344C7F8343407
:104D500007F114039B881BB2D7F890240A321288FB
:104D600012B202FB03F3D7F834241344C7F83434E7
:104D700007F11403DB881BB2D7F89024083212889D
:104D800012B202FB03F3D7F834241344C7F83434C7
:104D900007F114031B891BB2D7F89024063212883E
:104DA00012B202FB03F3D7F834241344C7F83434A7
:104DB00007F114035B891BB2D7F8902404321288E0
:104DC00012B202FB03F3D7F834241344C7F8343487
:104DD00007F114039B891BB2D7F890240232128882
:104DE00012B202FB03F3D7F834241344C7F8343467
:104DF00007F11403DB891BB2D7F89024128812B292
:104E000002FB03F3D7F834241344C7F83434D7F83B
:104E100034345B13A7F8323407F58C73D7F8602469
:104E200053F82220B7F93234B7F9321401FB03F3F7
:104E3000D11807F58C73D7F8602443F82210D7F8FF
:104E400038340E33B7F832241A8007F114031B8864
:104E50001BB2D7F890241032128812B202FB03F36F
:104E6000C7F8343407F114035B881BB2D7F89024D9
:104E70000E32128812B202FB03F3D7F83424134423
:104E8000C7F8343407F114039B881BB2D7F8902479
:104E90000C32128812B202FB03F3D7F83424134405
:104EA000C7F8343407F11403DB881BB2D7F8902419
:104EB0000A32128812B202FB03F3D7F834241344E7
:104EC000C7F8343407F114031B891BB2D7F89024B8
:104ED0000832128812B202FB03F3D7F834241344C9
:104EE000C7F8343407F114035B891BB2D7F8902458
:104EF0000632128812B202FB03F3D7F834241344AB
:104F0000C7F8343407F114039B891BB2D7F89024F7
:104F10000432128812B202FB03F3D7F8342413448C
:104F2000C7F8343407F11403DB891BB2D7F8902497
:104F30000232128812B202FB03F3D7F8342413446E
:104F4000C7F8343407F114031B8A1BB2D7F8902436
:104F5000128812B202FB03F3D7F834241344C7F8C3
:104F60003434D7F834345B13A7F8323407F58C7334
:104F7000D7F8602453F82220B7F93234B7F9321445
:104F800001FB03F3D11807F58C73D7F8602443F8BD
:104F90002210D7F838341033B7F832241A8007F1CA
:104FA00014031B881BB2D7F890241232128812B255
:104FB00002FB03F3C7F8343407F114035B881BB218
:104FC000D7F890241032128812B202FB03F3D7F8FC
:104FD00034241344C7F8343407F114039B881BB2FC
:104FE000D7F890240E32128812B202FB03F3D7F8DE
:104FF00034241344C7F8343407F11403DB881BB29C
:10500000D7F890240C32128812B202FB03F3D7F8BF
:1050100034241344C7F8343407F114031B891BB23A
:10502000D7F890240A32128812B202FB03F3D7F8A1
:1050300034241344C7F8343407F114035B891BB2DA
:10504000D7F890240832128812B202FB03F3D7F883
:1050500034241344C7F8343407F114039B891BB27A
:10506000D7F890240632128812B202FB03F3D7F865
:1050700034241344C7F8343407F11403DB891BB21A
:10508000D7F890240432128812B202FB03F3D7F847
:1050900034241344C7F8343407F114031B8A1BB2B9
:1050A000D7F890240232128812B202FB03F3D7F829
:1050B00034241344C7F8343407F114035B8A1BB259
:1050C000D7F89024128812B202FB03F3D7F83424E5
:1050D0001344C7F83434D7F834345B13A7F83234A8
:1050E00007F58C73D7F8602453F82220B7F93234CF
:1050F000B7F9321401FB03F3D11807F58C73D7F815
:10510000602443F82210D7F838341233B7F8322429
:105110001A80D7F860340133C7F86034D7F86024B8
:10512000D7F848349A42FFF64AAB0023C7F86C34EC
:1051300082E1D7F84434D7F86C2402FB03F35B0018
:1051400007F1C8021344C7F82C3407F58C73009399
:105150000123019307F21C43029307F58363039332
:10516000D7F898340493D7F82C04D7F84014D7F81C
:105170004424D7F8483408F00DFAD7F81C34D7F88F
:10518000940419460522FEF751F90123A7F8563475
:10519000D7F81C34C7F85834D7F85824D7F848340F
:1051A0009A420ADB4FF6FF73A7F85634D7F8582413
:1051B000D7F84834D31AC7F85834D7F85834D7F842
:1051C000442402FB03F35B0007F5CC721344C7F8D9
:1051D0002834B7F95634002B35DD0023C7F8643482
:1051E0002AE0D7F84434D7F86C2402FB03F2D7F84E
:1051F00064341A44D7F84434D7F86C1401FB03F133
:10520000D7F86434194407F1C80333F8113099B260
:10521000D7F864345B00D7F8280403441B889BB29A
:10522000CB1A9BB299B207F1C80323F81210D7F832
:1052300064340133C7F86434D7F86424D7F84434AD
:105240009A42CEDB34E00023C7F864342AE0D7F872
:105250004434D7F86C2402FB03F2D7F864341A44C0
:10526000D7F84434D7F86C1401FB03F1D7F8643451
:10527000194407F1C80333F8113099B2D7F86434F0
:105280005B00D7F8280403441B889BB20B449BB2F5
:1052900099B207F1C80323F81210D7F86434013328
:1052A000C7F86434D7F86424D7F844349A42CEDB84
:1052B000B7F95634012B2BD10023C7F8683420E00E
:1052C000D7F84434D7F86C2402FB03F2D7F86834DB
:1052D0001A44D7F85834D7F8441401FB03F1D7F82F
:1052E00068340B44D7F83C140B441B785BB259026A
:1052F00007F1280343F82210D7F868340133C7F8C0
:105300006834D7F86824D7F844349A42D8DB2BE0C5
:105310000023C7F8683421E0D7F84434D7F86C2468
:1053200002FB03F2D7F868341A44D7F85834D7F898
:10533000441401FB03F1D7F868340B44D7F83C144C
:105340000B441B785BB25B02594207F1280343F818
:105350002210D7F868340133C7F86834D7F86824C6
:10536000D7F844349A42D7DB0023C7F8643458E0B6
:105370000123A7F84E34D7F81C34C7F85034D7F8B7
:105380005024D7F848349A420ADB4FF6FF73A7F847
:105390004E34D7F85024D7F84834D31AC7F85034CD
:1053A000D7F84424D7F86434D31AC7F82434D7F88C
:1053B0005034D7F8442402FB03F2D7F86434134482
:1053C000D7F83C2413441B785BB29BB2B7F84E2449
:1053D00002FB03F39BB2A7F82234D7F86C340133F5
:1053E000D7F8442402FB03F35B0007F1C802D0188E
:1053F000D7F824345B00D7F890241A44D7F86C34DB
:10540000DB43D7F8441401FB03F1D7F888340B448D
:10541000B7F92214FFF772F9D7F864340133C7F8EB
:105420006434D7F86424D7F844349A42A0DBD7F820
:105430006C340133C7F86C34D7F86C34032B7FF726
:1054400078AE0023C7F8683419E0D7F868349B00B9
:10545000D7F88C241344D7F868249200D7F88C141A
:105460000A44116807F12802D7F8680452F820208E
:105470000A441A60D7F868340133C7F86834D7F89B
:105480006824D7F888349A42DFDB07F27447BD46B8
:1054900090BD00BF90B58FB000AFF860B9607A6082
:1054A0003B60BB68BB62BB6A1B687B62BB6A5B68B4
:1054B0003B62BB6A9B68FB61BB6A1B69BB61BB6CDF
:1054C0005B4203F00303BA6C1344BB643B6A9B006A
:1054D000BA6C1344BB643B6A9B005B42BA6C1344D6
:1054E0007B61BB6C5B4203F00303BA6C1344BB6487
:1054F0003B6A9B00BA6C1344BB643B6A9B005B42F3
:10550000BA6C13443B6100237B6322E0BB69002B30
:105510000AD07B6B9B003A69D41838680121FEF7EA
:1055200011F80346236005E07B6B9B003A69134446
:1055300000221A607B6B9B007A69D418BB6ADB6817
:1055400038681946FDF7FEFF034623607B6B013385
:105550007B637A6B3B6A9A42D8DB00237B635AE019
:105560000123FB857B6B9B003A6913441B68002B6E
:1055700002D04FF6FF73FB85B7F92E30012B23D1F4
:1055800000233B631BE07B6A7A6B02FB03F23B6BFD
:1055900013449B00FA6813447A6B920079690A44B9
:1055A0001268796A01FB02F13A6B0A44F9690A440C
:1055B000127852B252021A603B6B01333B633A6B72
:1055C0007B6A9A42DFDB23E000233B631CE07B6ABB
:1055D0007A6B02FB03F23B6B13449B00FA681344A3
:1055E0007A6B920079690A441268796A01FB02F1C8
:1055F0003A6B0A44F9690A44127852B25202524292
:105600001A603B6B01333B633A6B7B6A9A42DEDB89
:105610007B6B01337B637A6B3B6A9A42A0DB3C373E
:10562000BD4690BD80B58AB004AFF860B9607A60BD
:105630003B60BB6B5B4203F00103BA6B1344BB637B
:10564000BB6A5B00BA6B1344BB63BB6A5B005B4223
:10565000BA6B13443B613B690093BB6A01937B6A5D
:105660000293BB6B0393F868B9687A683B68FDF7EF
:10567000FBF800237B6114E07B699B00FA6A13440A
:105680007A699200F96A0A4411687A6952003869A5
:105690000244128812B212020A441A607B69013372
:1056A0007B617A69BB6A9A42E6DBBB6A5B00F86899
:1056B00000211A460AF008F81837BD4680BD00BF21
:1056C00080B485B000AF78600023FB607B68B3F5E1
:1056D000803F05D37B681B0C7B60FB680833FB6055
:1056E0007B68FF2B05D97B681B0A7B60FB68043352
:1056F000FB607B680F2B05D97B681B097B60FB680F
:105700000233FB607B68032B02D9FB680133FB602B
:10571000FB689BB21BB218461437BD465DF8047B8C
:10572000704700BF80B584B000AF78607B681846D2
:10573000FFF7C6FF0346063BFB60FB685B00002BE0
:1057400005DDFB685B007A6842FA03F305E0FB685D
:105750005B005B427A6802FA03F37B607B689BB272
:105760001AB27B689BB219B27B689BB21BB241F242
:105770006C0000FB03F39B139BB2A3F54553133B53
:105780009BB29BB21BB203FB01F39B139BB203F5CD
:10579000A54335339BB29BB21BB203FB02F39B13B1
:1057A0009BB203F632639BB29BB21BB2BB60FB6839
:1057B000C3F10703002B06DDFB68C3F10703BA68DA
:1057C00042FA03F304E0FB68073BBA6802FA03F30A
:1057D000BB60BB689BB21BB218461037BD4680BD8C
:1057E00080B584B000AF0346FB800023FB60B7F9AF
:1057F0000630002B05DA0123FB60FB885B429BB27D
:10580000FB80FB88C3F580439BB2FB80B7F9063071
:105810005B10FB80B7F90620B7F90630B7F9061020
:1058200040F2CE5000FB01F1491389B201F6C201EA
:1058300089B289B209B201FB03F35B139BB203F592
:10584000804355339BB29BB21BB203FB02F35B1345
:105850003B81B7F908305B031846FFF763FF034647
:105860007B81FB68002B05D07B89C3F5C9430833D6
:105870009BB27B817B891BB218461037BD4680BD29
:1058800080B485B000AF0346FB80B7F9062043F231
:1058900043239A4232DCB7F90630B7F9062002FBFF
:1058A00003F303F580535B13FB81B7F90E30B7F9AF
:1058B0000E20B7F90E106FF0090000FB01F101F5A1
:1058C0008051491389B201F5AA7189B289B209B22E
:1058D00001FB02F202F58052521392B2A2F58052FD
:1058E00092B292B212B202FB03F303F580535B1340
:1058F0009BB203F500539BB29BB23AE0FB88C3F521
:10590000C94308339BB2FB80B7F90630B7F90620CC
:1059100002FB03F303F580535B13FB81B7F90E30F1
:10592000B7F90E20B7F90E106FF0090000FB01F176
:1059300001F58051491389B201F5AA7189B289B282
:1059400009B201FB02F202F58052521392B2A2F5A3
:10595000805292B292B212B202FB03F303F580536B
:105960005B139AB24FF46043CFF6FF739B1A9BB25E
:105970009BB21BB218461437BD465DF8047B7047D6
:1059800080B489B000AFF8607A603B600B467B81E1
:10599000B7F90A30B3F5804F02DB43F6FF737B8122
:1059A000B7F90A3013F5804F02DC4CF201037B811A
:1059B0004FF480433B837B897B837B685B00FA6881
:1059C00013441B881AB27B6803F10043013B5B0060
:1059D000F9680B441B881BB2B7F90A1001FB03F3EB
:1059E00003F500539B1313447B610223FB6124E006
:1059F0007B8B7B82B7F90A30B7F91A2002FB03F3DD
:105A00005B139AB23B8BD31A9BB27B837B8A3B831B
:105A10007A68FB69D31A5B00FA6813441B881BB2CF
:105A2000B7F91A2002FB03F303F500539B137A69BD
:105A300013447B61FB690133FB61FA697B689A421D
:105A4000D6DD7B6918462437BD465DF8047B704778
:105A500090B59DB000AFF860B9607A603B600023FC
:105A6000A7F86A300023FB630123BB65BB68DA0F2C
:105A700013445B107B63D7F884305B4203F003036D
:105A8000D7F884201344C7F884307B6B01339B0024
:105A9000D7F884201344C7F884307B6B01339B0014
:105AA0005B42D7F8842013443B63D7F884305B42D1
:105AB00003F00303D7F884201344C7F884307B6BCA
:105AC00001339B00D7F884201344C7F884307B6BE4
:105AD00001339B005B42D7F884201344FB62FB6ACE
